{
  "contractName": "Exchange",
  "abi": [
    {
      "inputs": [],
      "stateMutability": "nonpayable",
      "type": "constructor"
    },
    {
      "inputs": [],
      "name": "register",
      "outputs": [],
      "stateMutability": "nonpayable",
      "type": "function"
    },
    {
      "inputs": [],
      "name": "unRegister",
      "outputs": [],
      "stateMutability": "nonpayable",
      "type": "function"
    },
    {
      "inputs": [
        {
          "internalType": "string",
          "name": "currency",
          "type": "string"
        },
        {
          "internalType": "uint256",
          "name": "fromAmt",
          "type": "uint256"
        },
        {
          "internalType": "uint256",
          "name": "toAmt",
          "type": "uint256"
        }
      ],
      "name": "requestforToken",
      "outputs": [],
      "stateMutability": "nonpayable",
      "type": "function"
    },
    {
      "inputs": [
        {
          "internalType": "string",
          "name": "currency",
          "type": "string"
        },
        {
          "internalType": "uint256",
          "name": "fromAmt",
          "type": "uint256"
        },
        {
          "internalType": "uint256",
          "name": "toAmt",
          "type": "uint256"
        }
      ],
      "name": "requestforCur",
      "outputs": [],
      "stateMutability": "payable",
      "type": "function"
    },
    {
      "inputs": [
        {
          "internalType": "address",
          "name": "requestedAddress",
          "type": "address"
        }
      ],
      "name": "approveRequest",
      "outputs": [],
      "stateMutability": "payable",
      "type": "function"
    },
    {
      "inputs": [],
      "name": "getMemRequested",
      "outputs": [
        {
          "internalType": "address[]",
          "name": "",
          "type": "address[]"
        }
      ],
      "stateMutability": "view",
      "type": "function"
    },
    {
      "inputs": [
        {
          "internalType": "address",
          "name": "member",
          "type": "address"
        }
      ],
      "name": "getDetail",
      "outputs": [
        {
          "internalType": "string",
          "name": "",
          "type": "string"
        },
        {
          "internalType": "uint256",
          "name": "",
          "type": "uint256"
        },
        {
          "internalType": "uint256",
          "name": "",
          "type": "uint256"
        },
        {
          "internalType": "address",
          "name": "",
          "type": "address"
        },
        {
          "internalType": "bool",
          "name": "",
          "type": "bool"
        },
        {
          "internalType": "bool",
          "name": "",
          "type": "bool"
        },
        {
          "internalType": "uint256",
          "name": "",
          "type": "uint256"
        }
      ],
      "stateMutability": "view",
      "type": "function"
    },
    {
      "inputs": [],
      "name": "cancelRequest",
      "outputs": [],
      "stateMutability": "nonpayable",
      "type": "function"
    },
    {
      "inputs": [],
      "name": "getStatus",
      "outputs": [
        {
          "internalType": "string[]",
          "name": "",
          "type": "string[]"
        },
        {
          "internalType": "uint256[]",
          "name": "",
          "type": "uint256[]"
        }
      ],
      "stateMutability": "view",
      "type": "function"
    },
    {
      "inputs": [],
      "name": "clean",
      "outputs": [],
      "stateMutability": "nonpayable",
      "type": "function"
    }
  ],
  "bytecode": "0x6080604052736912d034fba564a145633da36ec820ec1cda61e36000806101000a81548173ffffffffffffffffffffffffffffffffffffffff021916908373ffffffffffffffffffffffffffffffffffffffff16021790555034801561006457600080fd5b5033600160006101000a81548173ffffffffffffffffffffffffffffffffffffffff021916908373ffffffffffffffffffffffffffffffffffffffff160217905550613855806100b56000396000f3fe6080604052600436106100915760003560e01c80634e69d560116100595780634e69d5601461012757806366f9a4d114610153578063851b16f51461017c578063a746ee2e14610193578063fc4333cd146101d657610091565b8063061dff9a146100965780631705af14146100b2578063191725d1146100dd5780631aa3a008146100f957806326d7b3b414610110575b600080fd5b6100b060048036038101906100ab9190612d6f565b6101ed565b005b3480156100be57600080fd5b506100c761170a565b6040516100d49190613305565b60405180910390f35b6100f760048036038101906100f29190612dc1565b6117e7565b005b34801561010557600080fd5b5061010e611da7565b005b34801561011c57600080fd5b50610125611df1565b005b34801561013357600080fd5b5061013c611e8a565b60405161014a929190613327565b60405180910390f35b34801561015f57600080fd5b5061017a60048036038101906101759190612dc1565b61203e565b005b34801561018857600080fd5b50610191612629565b005b34801561019f57600080fd5b506101ba60048036038101906101b59190612d6f565b6127eb565b6040516101cd979695949392919061335e565b60405180910390f35b3480156101e257600080fd5b506101eb612af8565b005b6001600360003373ffffffffffffffffffffffffffffffffffffffff1673ffffffffffffffffffffffffffffffffffffffff168152602001908152602001600020600001541461023c57600080fd5b6000600260008373ffffffffffffffffffffffffffffffffffffffff1673ffffffffffffffffffffffffffffffffffffffff1681526020019081526020016000206002015490506000600260008473ffffffffffffffffffffffffffffffffffffffff1673ffffffffffffffffffffffffffffffffffffffff16815260200190815260200160002060010154905060008060008060008060005b600480549050811015610392573373ffffffffffffffffffffffffffffffffffffffff1660048281548110610334577f4e487b7100000000000000000000000000000000000000000000000000000000600052603260045260246000fd5b9060005260206000200160009054906101000a900473ffffffffffffffffffffffffffffffffffffffff1673ffffffffffffffffffffffffffffffffffffffff16141561037f578091505b808061038a906136f3565b9150506102d6565b5060005b600360003373ffffffffffffffffffffffffffffffffffffffff1673ffffffffffffffffffffffffffffffffffffffff1681526020019081526020016000206001018054905081101561051657600260003373ffffffffffffffffffffffffffffffffffffffff1673ffffffffffffffffffffffffffffffffffffffff168152602001908152602001600020600001604051602001610435919061324a565b60405160208183030381529060405280519060200120600360003373ffffffffffffffffffffffffffffffffffffffff1673ffffffffffffffffffffffffffffffffffffffff16815260200190815260200160002060010182815481106104c5577f4e487b7100000000000000000000000000000000000000000000000000000000600052603260045260246000fd5b906000526020600020016040516020016104df919061324a565b60405160208183030381529060405280519060200120141561050357809650600194505b808061050e906136f3565b915050610396565b5060005b600360008b73ffffffffffffffffffffffffffffffffffffffff1673ffffffffffffffffffffffffffffffffffffffff1681526020019081526020016000206001018054905081101561069a57600260008b73ffffffffffffffffffffffffffffffffffffffff1673ffffffffffffffffffffffffffffffffffffffff1681526020019081526020016000206000016040516020016105b9919061324a565b60405160208183030381529060405280519060200120600360008c73ffffffffffffffffffffffffffffffffffffffff1673ffffffffffffffffffffffffffffffffffffffff1681526020019081526020016000206001018281548110610649577f4e487b7100000000000000000000000000000000000000000000000000000000600052603260045260246000fd5b90600052602060002001604051602001610663919061324a565b60405160208183030381529060405280519060200120141561068757809550600193505b8080610692906136f3565b91505061051a565b506001600260008b73ffffffffffffffffffffffffffffffffffffffff1673ffffffffffffffffffffffffffffffffffffffff1681526020019081526020016000206004015414156116fa57600260008a73ffffffffffffffffffffffffffffffffffffffff1673ffffffffffffffffffffffffffffffffffffffff16815260200190815260200160002060030160149054906101000a900460ff16801561079a575060018314806107995750600160009054906101000a900473ffffffffffffffffffffffffffffffffffffffff1673ffffffffffffffffffffffffffffffffffffffff163373ffffffffffffffffffffffffffffffffffffffff16145b5b15610ebf578760008054906101000a900473ffffffffffffffffffffffffffffffffffffffff1673ffffffffffffffffffffffffffffffffffffffff166370a08231336040518263ffffffff1660e01b81526004016107f99190613261565b60206040518083038186803b15801561081157600080fd5b505afa158015610825573d6000803e3d6000fd5b505050506040513d601f19601f820116820180604052508101906108499190612e28565b101561088a576040517f08c379a0000000000000000000000000000000000000000000000000000000008152600401610881906133f4565b60405180910390fd5b8760008054906101000a900473ffffffffffffffffffffffffffffffffffffffff1673ffffffffffffffffffffffffffffffffffffffff1663dd62ed3e33306040518363ffffffff1660e01b81526004016108e692919061327c565b60206040518083038186803b1580156108fe57600080fd5b505afa158015610912573d6000803e3d6000fd5b505050506040513d601f19601f820116820180604052508101906109369190612e28565b1015610977576040517f08c379a000000000000000000000000000000000000000000000000000000000815260040161096e906133d4565b60405180910390fd5b86600360008b73ffffffffffffffffffffffffffffffffffffffff1673ffffffffffffffffffffffffffffffffffffffff16815260200190815260200160002060020186815481106109f2577f4e487b7100000000000000000000000000000000000000000000000000000000600052603260045260246000fd5b90600052602060002001541015610a3e576040517f08c379a0000000000000000000000000000000000000000000000000000000008152600401610a3590613434565b60405180910390fd5b60008054906101000a900473ffffffffffffffffffffffffffffffffffffffff1673ffffffffffffffffffffffffffffffffffffffff166323b872dd33308b6040518463ffffffff1660e01b8152600401610a9b939291906132a5565b602060405180830381600087803b158015610ab557600080fd5b505af1158015610ac9573d6000803e3d6000fd5b505050506040513d601f19601f82011682018060405250810190610aed9190612d98565b5060008054906101000a900473ffffffffffffffffffffffffffffffffffffffff1673ffffffffffffffffffffffffffffffffffffffff1663a9059cbb8a8a6040518363ffffffff1660e01b8152600401610b499291906132dc565b602060405180830381600087803b158015610b6357600080fd5b505af1158015610b77573d6000803e3d6000fd5b505050506040513d601f19601f82011682018060405250810190610b9b9190612d98565b50600191506000600260008b73ffffffffffffffffffffffffffffffffffffffff1673ffffffffffffffffffffffffffffffffffffffff1681526020019081526020016000206004018190555060048181548110610c22577f4e487b7100000000000000000000000000000000000000000000000000000000600052603260045260246000fd5b9060005260206000200160006101000a81549073ffffffffffffffffffffffffffffffffffffffff02191690556000841415610d8757600360003373ffffffffffffffffffffffffffffffffffffffff1673ffffffffffffffffffffffffffffffffffffffff168152602001908152602001600020600101600260008b73ffffffffffffffffffffffffffffffffffffffff1673ffffffffffffffffffffffffffffffffffffffff16815260200190815260200160002060000190806001815401808255809150506001900390600052602060002001600090919091909150908054610d0d906136c1565b610d18929190612b62565b50600360003373ffffffffffffffffffffffffffffffffffffffff1673ffffffffffffffffffffffffffffffffffffffff168152602001908152602001600020600201879080600181540180825580915050600190039060005260206000200160009091909190915055610e23565b86600360003373ffffffffffffffffffffffffffffffffffffffff1673ffffffffffffffffffffffffffffffffffffffff1681526020019081526020016000206002018781548110610e02577f4e487b7100000000000000000000000000000000000000000000000000000000600052603260045260246000fd5b906000526020600020016000828254610e1b91906135ad565b925050819055505b86600360008b73ffffffffffffffffffffffffffffffffffffffff1673ffffffffffffffffffffffffffffffffffffffff1681526020019081526020016000206002018681548110610e9e577f4e487b7100000000000000000000000000000000000000000000000000000000600052603260045260246000fd5b906000526020600020016000828254610eb79190613603565b925050819055505b60011515600260008b73ffffffffffffffffffffffffffffffffffffffff1673ffffffffffffffffffffffffffffffffffffffff16815260200190815260200160002060030160159054906101000a900460ff161515148015610f7a57506001841480610f795750600160009054906101000a900473ffffffffffffffffffffffffffffffffffffffff1673ffffffffffffffffffffffffffffffffffffffff163373ffffffffffffffffffffffffffffffffffffffff16145b5b156116f5578660008054906101000a900473ffffffffffffffffffffffffffffffffffffffff1673ffffffffffffffffffffffffffffffffffffffff166370a082318b6040518263ffffffff1660e01b8152600401610fd99190613261565b60206040518083038186803b158015610ff157600080fd5b505afa158015611005573d6000803e3d6000fd5b505050506040513d601f19601f820116820180604052508101906110299190612e28565b101561106a576040517f08c379a0000000000000000000000000000000000000000000000000000000008152600401611061906133f4565b60405180910390fd5b8660008054906101000a900473ffffffffffffffffffffffffffffffffffffffff1673ffffffffffffffffffffffffffffffffffffffff1663dd62ed3e8b306040518363ffffffff1660e01b81526004016110c692919061327c565b60206040518083038186803b1580156110de57600080fd5b505afa1580156110f2573d6000803e3d6000fd5b505050506040513d601f19601f820116820180604052508101906111169190612e28565b1015611157576040517f08c379a000000000000000000000000000000000000000000000000000000000815260040161114e906133d4565b60405180910390fd5b600160009054906101000a900473ffffffffffffffffffffffffffffffffffffffff1673ffffffffffffffffffffffffffffffffffffffff163373ffffffffffffffffffffffffffffffffffffffff161461130f5787600360003373ffffffffffffffffffffffffffffffffffffffff1673ffffffffffffffffffffffffffffffffffffffff1681526020019081526020016000206002018781548110611227577f4e487b7100000000000000000000000000000000000000000000000000000000600052603260045260246000fd5b90600052602060002001541015611273576040517f08c379a000000000000000000000000000000000000000000000000000000000815260040161126a90613434565b60405180910390fd5b87600360003373ffffffffffffffffffffffffffffffffffffffff1673ffffffffffffffffffffffffffffffffffffffff16815260200190815260200160002060020187815481106112ee577f4e487b7100000000000000000000000000000000000000000000000000000000600052603260045260246000fd5b9060005260206000200160008282546113079190613603565b925050819055505b600083141561144757600360008a73ffffffffffffffffffffffffffffffffffffffff1673ffffffffffffffffffffffffffffffffffffffff168152602001908152602001600020600101600260008b73ffffffffffffffffffffffffffffffffffffffff1673ffffffffffffffffffffffffffffffffffffffff168152602001908152602001600020600001908060018154018082558091505060019003906000526020600020016000909190919091509080546113cd906136c1565b6113d8929190612b62565b50600360008a73ffffffffffffffffffffffffffffffffffffffff1673ffffffffffffffffffffffffffffffffffffffff1681526020019081526020016000206002018890806001815401808255809150506001900390600052602060002001600090919091909150556114e3565b87600360008b73ffffffffffffffffffffffffffffffffffffffff1673ffffffffffffffffffffffffffffffffffffffff16815260200190815260200160002060020186815481106114c2577f4e487b7100000000000000000000000000000000000000000000000000000000600052603260045260246000fd5b9060005260206000200160008282546114db91906135ad565b925050819055505b60008054906101000a900473ffffffffffffffffffffffffffffffffffffffff1673ffffffffffffffffffffffffffffffffffffffff166323b872dd8a308a6040518463ffffffff1660e01b8152600401611540939291906132a5565b602060405180830381600087803b15801561155a57600080fd5b505af115801561156e573d6000803e3d6000fd5b505050506040513d601f19601f820116820180604052508101906115929190612d98565b5060008054906101000a900473ffffffffffffffffffffffffffffffffffffffff1673ffffffffffffffffffffffffffffffffffffffff1663a9059cbb33896040518363ffffffff1660e01b81526004016115ee9291906132dc565b602060405180830381600087803b15801561160857600080fd5b505af115801561161c573d6000803e3d6000fd5b505050506040513d601f19601f820116820180604052508101906116409190612d98565b50600191506000600260008b73ffffffffffffffffffffffffffffffffffffffff1673ffffffffffffffffffffffffffffffffffffffff16815260200190815260200160002060040181905550600481815481106116c7577f4e487b7100000000000000000000000000000000000000000000000000000000600052603260045260246000fd5b9060005260206000200160006101000a81549073ffffffffffffffffffffffffffffffffffffffff02191690555b6116ff565b600080fd5b505050505050505050565b60606001600360003373ffffffffffffffffffffffffffffffffffffffff1673ffffffffffffffffffffffffffffffffffffffff168152602001908152602001600020600001541461175b57600080fd5b60048054806020026020016040519081016040528092919081815260200182805480156117dd57602002820191906000526020600020905b8160009054906101000a900473ffffffffffffffffffffffffffffffffffffffff1673ffffffffffffffffffffffffffffffffffffffff1681526020019060010190808311611793575b5050505050905090565b6001600360003373ffffffffffffffffffffffffffffffffffffffff1673ffffffffffffffffffffffffffffffffffffffff168152602001908152602001600020600001541461183657600080fd5b8160008054906101000a900473ffffffffffffffffffffffffffffffffffffffff1673ffffffffffffffffffffffffffffffffffffffff166370a08231336040518263ffffffff1660e01b81526004016118909190613261565b60206040518083038186803b1580156118a857600080fd5b505afa1580156118bc573d6000803e3d6000fd5b505050506040513d601f19601f820116820180604052508101906118e09190612e28565b1015611921576040517f08c379a0000000000000000000000000000000000000000000000000000000008152600401611918906133f4565b60405180910390fd5b8160008054906101000a900473ffffffffffffffffffffffffffffffffffffffff1673ffffffffffffffffffffffffffffffffffffffff1663dd62ed3e33306040518363ffffffff1660e01b815260040161197d92919061327c565b60206040518083038186803b15801561199557600080fd5b505afa1580156119a9573d6000803e3d6000fd5b505050506040513d601f19601f820116820180604052508101906119cd9190612e28565b1015611a0e576040517f08c379a0000000000000000000000000000000000000000000000000000000008152600401611a05906133d4565b60405180910390fd5b82600260003373ffffffffffffffffffffffffffffffffffffffff1673ffffffffffffffffffffffffffffffffffffffff1681526020019081526020016000206000019080519060200190611a64929190612bef565b5081600260003373ffffffffffffffffffffffffffffffffffffffff1673ffffffffffffffffffffffffffffffffffffffff1681526020019081526020016000206001018190555080600260003373ffffffffffffffffffffffffffffffffffffffff1673ffffffffffffffffffffffffffffffffffffffff168152602001908152602001600020600201819055506000600260003373ffffffffffffffffffffffffffffffffffffffff1673ffffffffffffffffffffffffffffffffffffffff16815260200190815260200160002060030160146101000a81548160ff0219169083151502179055506001600260003373ffffffffffffffffffffffffffffffffffffffff1673ffffffffffffffffffffffffffffffffffffffff16815260200190815260200160002060030160156101000a81548160ff02191690831515021790555033600260003373ffffffffffffffffffffffffffffffffffffffff1673ffffffffffffffffffffffffffffffffffffffff16815260200190815260200160002060030160006101000a81548173ffffffffffffffffffffffffffffffffffffffff021916908373ffffffffffffffffffffffffffffffffffffffff1602179055506001600260003373ffffffffffffffffffffffffffffffffffffffff1673ffffffffffffffffffffffffffffffffffffffff168152602001908152602001600020600401819055506000805b600480549050811015611d33573373ffffffffffffffffffffffffffffffffffffffff1660048281548110611cd4577f4e487b7100000000000000000000000000000000000000000000000000000000600052603260045260246000fd5b9060005260206000200160009054906101000a900473ffffffffffffffffffffffffffffffffffffffff1673ffffffffffffffffffffffffffffffffffffffff161415611d2057600191505b8080611d2b906136f3565b915050611c76565b506000811415611da1576004339080600181540180825580915050600190039060005260206000200160009091909190916101000a81548173ffffffffffffffffffffffffffffffffffffffff021916908373ffffffffffffffffffffffffffffffffffffffff1602179055505b50505050565b6001600360003373ffffffffffffffffffffffffffffffffffffffff1673ffffffffffffffffffffffffffffffffffffffff16815260200190815260200160002060000181905550565b6001600360003373ffffffffffffffffffffffffffffffffffffffff1673ffffffffffffffffffffffffffffffffffffffff1681526020019081526020016000206000015414611e4057600080fd5b6000600360003373ffffffffffffffffffffffffffffffffffffffff1673ffffffffffffffffffffffffffffffffffffffff16815260200190815260200160002060000181905550565b606080600360003373ffffffffffffffffffffffffffffffffffffffff1673ffffffffffffffffffffffffffffffffffffffff168152602001908152602001600020600101600360003373ffffffffffffffffffffffffffffffffffffffff1673ffffffffffffffffffffffffffffffffffffffff16815260200190815260200160002060020181805480602002602001604051908101604052809291908181526020016000905b82821015611fde578382906000526020600020018054611f51906136c1565b80601f0160208091040260200160405190810160405280929190818152602001828054611f7d906136c1565b8015611fca5780601f10611f9f57610100808354040283529160200191611fca565b820191906000526020600020905b815481529060010190602001808311611fad57829003601f168201915b505050505081526020019060010190611f32565b5050505091508080548060200260200160405190810160405280929190818152602001828054801561202f57602002820191906000526020600020905b81548152602001906001019080831161201b575b50505050509050915091509091565b6001600360003373ffffffffffffffffffffffffffffffffffffffff1673ffffffffffffffffffffffffffffffffffffffff168152602001908152602001600020600001541461208d57600080fd5b60005b600360003373ffffffffffffffffffffffffffffffffffffffff1673ffffffffffffffffffffffffffffffffffffffff1681526020019081526020016000206001018054905081101561262357836040516020016120ee9190613233565b60405160208183030381529060405280519060200120600360003373ffffffffffffffffffffffffffffffffffffffff1673ffffffffffffffffffffffffffffffffffffffff168152602001908152602001600020600101828154811061217e577f4e487b7100000000000000000000000000000000000000000000000000000000600052603260045260246000fd5b90600052602060002001604051602001612198919061324a565b6040516020818303038152906040528051906020012014156126105782600360003373ffffffffffffffffffffffffffffffffffffffff1673ffffffffffffffffffffffffffffffffffffffff168152602001908152602001600020600201828154811061222f577f4e487b7100000000000000000000000000000000000000000000000000000000600052603260045260246000fd5b9060005260206000200154101561227b576040517f08c379a000000000000000000000000000000000000000000000000000000000815260040161227290613414565b60405180910390fd5b83600260003373ffffffffffffffffffffffffffffffffffffffff1673ffffffffffffffffffffffffffffffffffffffff16815260200190815260200160002060000190805190602001906122d1929190612bef565b5082600260003373ffffffffffffffffffffffffffffffffffffffff1673ffffffffffffffffffffffffffffffffffffffff1681526020019081526020016000206001018190555081600260003373ffffffffffffffffffffffffffffffffffffffff1673ffffffffffffffffffffffffffffffffffffffff168152602001908152602001600020600201819055506001600260003373ffffffffffffffffffffffffffffffffffffffff1673ffffffffffffffffffffffffffffffffffffffff16815260200190815260200160002060030160146101000a81548160ff0219169083151502179055506000600260003373ffffffffffffffffffffffffffffffffffffffff1673ffffffffffffffffffffffffffffffffffffffff16815260200190815260200160002060030160156101000a81548160ff02191690831515021790555033600260003373ffffffffffffffffffffffffffffffffffffffff1673ffffffffffffffffffffffffffffffffffffffff16815260200190815260200160002060030160006101000a81548173ffffffffffffffffffffffffffffffffffffffff021916908373ffffffffffffffffffffffffffffffffffffffff1602179055506001600260003373ffffffffffffffffffffffffffffffffffffffff1673ffffffffffffffffffffffffffffffffffffffff168152602001908152602001600020600401819055506000805b6004805490508110156125a0573373ffffffffffffffffffffffffffffffffffffffff1660048281548110612541577f4e487b7100000000000000000000000000000000000000000000000000000000600052603260045260246000fd5b9060005260206000200160009054906101000a900473ffffffffffffffffffffffffffffffffffffffff1673ffffffffffffffffffffffffffffffffffffffff16141561258d57600191505b8080612598906136f3565b9150506124e3565b50600081141561260e576004339080600181540180825580915050600190039060005260206000200160009091909190916101000a81548173ffffffffffffffffffffffffffffffffffffffff021916908373ffffffffffffffffffffffffffffffffffffffff1602179055505b505b808061261b906136f3565b915050612090565b50505050565b6001600360003373ffffffffffffffffffffffffffffffffffffffff1673ffffffffffffffffffffffffffffffffffffffff168152602001908152602001600020600001541461267857600080fd5b6000805b600480549050811015612738573373ffffffffffffffffffffffffffffffffffffffff16600482815481106126da577f4e487b7100000000000000000000000000000000000000000000000000000000600052603260045260246000fd5b9060005260206000200160009054906101000a900473ffffffffffffffffffffffffffffffffffffffff1673ffffffffffffffffffffffffffffffffffffffff161415612725578091505b8080612730906136f3565b91505061267c565b506000600260003373ffffffffffffffffffffffffffffffffffffffff1673ffffffffffffffffffffffffffffffffffffffff16815260200190815260200160002060040181905550600481815481106127bb577f4e487b7100000000000000000000000000000000000000000000000000000000600052603260045260246000fd5b9060005260206000200160006101000a81549073ffffffffffffffffffffffffffffffffffffffff021916905550565b60606000806000806000806001600360003373ffffffffffffffffffffffffffffffffffffffff1673ffffffffffffffffffffffffffffffffffffffff168152602001908152602001600020600001541461284557600080fd5b600260008973ffffffffffffffffffffffffffffffffffffffff1673ffffffffffffffffffffffffffffffffffffffff168152602001908152602001600020600001600260008a73ffffffffffffffffffffffffffffffffffffffff1673ffffffffffffffffffffffffffffffffffffffff16815260200190815260200160002060010154600260008b73ffffffffffffffffffffffffffffffffffffffff1673ffffffffffffffffffffffffffffffffffffffff16815260200190815260200160002060020154600260008c73ffffffffffffffffffffffffffffffffffffffff1673ffffffffffffffffffffffffffffffffffffffff16815260200190815260200160002060030160009054906101000a900473ffffffffffffffffffffffffffffffffffffffff16600260008d73ffffffffffffffffffffffffffffffffffffffff1673ffffffffffffffffffffffffffffffffffffffff16815260200190815260200160002060030160149054906101000a900460ff16600260008e73ffffffffffffffffffffffffffffffffffffffff1673ffffffffffffffffffffffffffffffffffffffff16815260200190815260200160002060030160159054906101000a900460ff16600260008f73ffffffffffffffffffffffffffffffffffffffff1673ffffffffffffffffffffffffffffffffffffffff16815260200190815260200160002060040154868054612a5f906136c1565b80601f0160208091040260200160405190810160405280929190818152602001828054612a8b906136c1565b8015612ad85780601f10612aad57610100808354040283529160200191612ad8565b820191906000526020600020905b815481529060010190602001808311612abb57829003601f168201915b505050505096509650965096509650965096509650919395979092949650565b600160009054906101000a900473ffffffffffffffffffffffffffffffffffffffff1673ffffffffffffffffffffffffffffffffffffffff163373ffffffffffffffffffffffffffffffffffffffff1614612b5257600080fd5b60046000612b609190612c75565b565b828054612b6e906136c1565b90600052602060002090601f016020900481019282612b905760008555612bde565b82601f10612ba15780548555612bde565b82800160010185558215612bde57600052602060002091601f016020900482015b82811115612bdd578254825591600101919060010190612bc2565b5b509050612beb9190612c96565b5090565b828054612bfb906136c1565b90600052602060002090601f016020900481019282612c1d5760008555612c64565b82601f10612c3657805160ff1916838001178555612c64565b82800160010185558215612c64579182015b82811115612c63578251825591602001919060010190612c48565b5b509050612c719190612c96565b5090565b5080546000825590600052602060002090810190612c939190612c96565b50565b5b80821115612caf576000816000905550600101612c97565b5090565b6000612cc6612cc184613485565b613454565b905082815260208101848484011115612cde57600080fd5b612ce984828561367f565b509392505050565b600081359050612d00816137da565b92915050565b600081519050612d15816137f1565b92915050565b600082601f830112612d2c57600080fd5b8135612d3c848260208601612cb3565b91505092915050565b600081359050612d5481613808565b92915050565b600081519050612d6981613808565b92915050565b600060208284031215612d8157600080fd5b6000612d8f84828501612cf1565b91505092915050565b600060208284031215612daa57600080fd5b6000612db884828501612d06565b91505092915050565b600080600060608486031215612dd657600080fd5b600084013567ffffffffffffffff811115612df057600080fd5b612dfc86828701612d1b565b9350506020612e0d86828701612d45565b9250506040612e1e86828701612d45565b9150509250925092565b600060208284031215612e3a57600080fd5b6000612e4884828501612d5a565b91505092915050565b6000612e5d8383612e95565b60208301905092915050565b6000612e758383612ff3565b905092915050565b6000612e898383613215565b60208301905092915050565b612e9e81613637565b82525050565b612ead81613637565b82525050565b6000612ebe826134fa565b612ec8818561354d565b9350612ed3836134b5565b8060005b83811015612f04578151612eeb8882612e51565b9750612ef683613526565b925050600181019050612ed7565b5085935050505092915050565b6000612f1c82613505565b612f26818561355e565b935083602082028501612f38856134c5565b8060005b85811015612f745784840389528151612f558582612e69565b9450612f6083613533565b925060208a01995050600181019050612f3c565b50829750879550505050505092915050565b6000612f9182613510565b612f9b818561356f565b9350612fa6836134d5565b8060005b83811015612fd7578151612fbe8882612e7d565b9750612fc983613540565b925050600181019050612faa565b5085935050505092915050565b612fed81613649565b82525050565b6000612ffe8261351b565b6130088185613580565b935061301881856020860161368e565b613021816137c9565b840191505092915050565b60006130378261351b565b6130418185613591565b935061305181856020860161368e565b61305a816137c9565b840191505092915050565b60006130708261351b565b61307a81856135a2565b935061308a81856020860161368e565b80840191505092915050565b600081546130a3816136c1565b6130ad81866135a2565b945060018216600081146130c857600181146130d95761310c565b60ff1983168652818601935061310c565b6130e2856134e5565b60005b83811015613104578154818901526001820191506020810190506130e5565b838801955050505b50505092915050565b6000613122601683613591565b91507f496e73756666696369656e7420416c6c6f77616e6365000000000000000000006000830152602082019050919050565b6000613162601283613591565b91507f496e73756666696369656e7420546f6b656e00000000000000000000000000006000830152602082019050919050565b60006131a2601383613591565b91507f496e73756666696369656e7420616d6f756e74000000000000000000000000006000830152602082019050919050565b60006131e2601583613591565b91507f496e73756666696369656e742043757272656e637900000000000000000000006000830152602082019050919050565b61321e81613675565b82525050565b61322d81613675565b82525050565b600061323f8284613065565b915081905092915050565b60006132568284613096565b915081905092915050565b60006020820190506132766000830184612ea4565b92915050565b60006040820190506132916000830185612ea4565b61329e6020830184612ea4565b9392505050565b60006060820190506132ba6000830186612ea4565b6132c76020830185612ea4565b6132d46040830184613224565b949350505050565b60006040820190506132f16000830185612ea4565b6132fe6020830184613224565b9392505050565b6000602082019050818103600083015261331f8184612eb3565b905092915050565b600060408201905081810360008301526133418185612f11565b905081810360208301526133558184612f86565b90509392505050565b600060e0820190508181036000830152613378818a61302c565b90506133876020830189613224565b6133946040830188613224565b6133a16060830187612ea4565b6133ae6080830186612fe4565b6133bb60a0830185612fe4565b6133c860c0830184613224565b98975050505050505050565b600060208201905081810360008301526133ed81613115565b9050919050565b6000602082019050818103600083015261340d81613155565b9050919050565b6000602082019050818103600083015261342d81613195565b9050919050565b6000602082019050818103600083015261344d816131d5565b9050919050565b6000604051905081810181811067ffffffffffffffff8211171561347b5761347a61379a565b5b8060405250919050565b600067ffffffffffffffff8211156134a05761349f61379a565b5b601f19601f8301169050602081019050919050565b6000819050602082019050919050565b6000819050602082019050919050565b6000819050602082019050919050565b60008190508160005260206000209050919050565b600081519050919050565b600081519050919050565b600081519050919050565b600081519050919050565b6000602082019050919050565b6000602082019050919050565b6000602082019050919050565b600082825260208201905092915050565b600082825260208201905092915050565b600082825260208201905092915050565b600082825260208201905092915050565b600082825260208201905092915050565b600081905092915050565b60006135b882613675565b91506135c383613675565b9250827fffffffffffffffffffffffffffffffffffffffffffffffffffffffffffffffff038211156135f8576135f761373c565b5b828201905092915050565b600061360e82613675565b915061361983613675565b92508282101561362c5761362b61373c565b5b828203905092915050565b600061364282613655565b9050919050565b60008115159050919050565b600073ffffffffffffffffffffffffffffffffffffffff82169050919050565b6000819050919050565b82818337600083830152505050565b60005b838110156136ac578082015181840152602081019050613691565b838111156136bb576000848401525b50505050565b600060028204905060018216806136d957607f821691505b602082108114156136ed576136ec61376b565b5b50919050565b60006136fe82613675565b91507fffffffffffffffffffffffffffffffffffffffffffffffffffffffffffffffff8214156137315761373061373c565b5b600182019050919050565b7f4e487b7100000000000000000000000000000000000000000000000000000000600052601160045260246000fd5b7f4e487b7100000000000000000000000000000000000000000000000000000000600052602260045260246000fd5b7f4e487b7100000000000000000000000000000000000000000000000000000000600052604160045260246000fd5b6000601f19601f8301169050919050565b6137e381613637565b81146137ee57600080fd5b50565b6137fa81613649565b811461380557600080fd5b50565b61381181613675565b811461381c57600080fd5b5056fea26469706673582212202c675cbe38965ce31559ab675acd54c01751167a00c452cf073243d188b8420064736f6c63430008000033",
  "immutableReferences": {},
  "source": "pragma solidity >=0.4.22 <0.9.0;\r\npragma experimental ABIEncoderV2;\r\nimport \"@openzeppelin/contracts/token/ERC20/ERC20.sol\";\r\ncontract Exchange{\r\n\r\n    struct reqDetails{\r\n        string currency;\r\n        uint256 fromAmt;\r\n        uint256 toAmt;\r\n        address fromMember;\r\n        bool toToken;\r\n        bool fromToken;\r\n        uint valid;\r\n    }\r\n\r\n    struct memDetails{\r\n        uint membership;\r\n        string[] currencies;\r\n        uint[] currencyAmt;\r\n    }\r\n\r\n    address token = 0x6912d034fbA564A145633dA36EC820EC1CDa61e3;\r\n    address admin;\r\n    mapping(address => reqDetails) requests;\r\n    mapping(address => memDetails) memberDetails;\r\n    address[] memRequested;\r\n\r\n    modifier onlyAdmin () {\r\n        require(msg.sender==admin);\r\n        _;\r\n    }\r\n\r\n    modifier onlyMembers () {\r\n        require(memberDetails[msg.sender].membership == 1);\r\n        _;\r\n    }\r\n\r\n    constructor (){\r\n        admin = msg.sender;\r\n    }\r\n\r\n    function register () public{\r\n        memberDetails[msg.sender].membership = 1;\r\n    }\r\n\r\n    function unRegister () public onlyMembers{\r\n        memberDetails[msg.sender].membership = 0;\r\n    }\r\n\r\n    function requestforToken (string memory currency, uint256 fromAmt, uint256 toAmt) public onlyMembers{\r\n        for(uint i =0; i < memberDetails[msg.sender].currencies.length; i++){\r\n            if (keccak256(abi.encodePacked(memberDetails[msg.sender].currencies[i])) == keccak256(abi.encodePacked(currency))){\r\n                require(memberDetails[msg.sender].currencyAmt[i] >=  fromAmt, 'Insufficient amount');\r\n                requests[msg.sender].currency = currency;\r\n                requests[msg.sender].fromAmt = fromAmt;\r\n                requests[msg.sender].toAmt = toAmt;\r\n                requests[msg.sender].toToken = true;\r\n                requests[msg.sender].fromToken = false;\r\n                requests[msg.sender].fromMember = msg.sender;\r\n                requests[msg.sender].valid =1;\r\n\r\n                int found = 0;\r\n                for(uint j=0; j<memRequested.length; j++){\r\n                    if(memRequested[j] == msg.sender){\r\n                        found = 1;\r\n            }\r\n        }\r\n                if(found == 0){\r\n                    memRequested.push(msg.sender);\r\n                }\r\n            }\r\n        }\r\n    }\r\n\r\n    function requestforCur (string memory currency, uint256 fromAmt, uint256 toAmt) public onlyMembers payable{\r\n        require(ERC20(token).balanceOf(msg.sender) >= fromAmt, \"Insufficient Token\");\r\n        require(ERC20(token).allowance(msg.sender, address(this)) >= fromAmt, \"Insufficient Allowance\");\r\n\r\n        requests[msg.sender].currency = currency;\r\n        requests[msg.sender].fromAmt = fromAmt;\r\n        requests[msg.sender].toAmt = toAmt;\r\n        requests[msg.sender].toToken = false;\r\n        requests[msg.sender].fromToken = true;\r\n        requests[msg.sender].fromMember = msg.sender;\r\n        requests[msg.sender].valid =1;\r\n\r\n        int found = 0;\r\n        for(uint j=0; j<memRequested.length; j++){\r\n            if(memRequested[j] == msg.sender){\r\n                found = 1;\r\n            }\r\n        }\r\n        if(found == 0){\r\n            memRequested.push(msg.sender);\r\n        }\r\n\r\n    }\r\n\r\n    function approveRequest (address requestedAddress) public onlyMembers payable{\r\n        uint amount1 = requests[requestedAddress].toAmt;\r\n        uint amount2 = requests[requestedAddress].fromAmt;\r\n        uint index1 =0;\r\n        uint index2 =0;\r\n        uint found1 =0;\r\n        uint found2 =0;\r\n        uint sucess =0;\r\n        uint index=0;\r\n\r\n        for(uint i=0; i<memRequested.length; i++){\r\n            if(memRequested[i] == msg.sender){\r\n                index = i;\r\n            }\r\n        }\r\n\r\n        for (uint i=0; i < memberDetails[msg.sender].currencies.length; i++){\r\n            if (keccak256(abi.encodePacked(memberDetails[msg.sender].currencies[i])) == keccak256(abi.encodePacked(requests[msg.sender].currency))){\r\n                index1 = i;\r\n                found1 = 1;\r\n            }\r\n        }\r\n\r\n        for (uint i=0; i < memberDetails[requestedAddress].currencies.length; i++){\r\n            if (keccak256(abi.encodePacked(memberDetails[requestedAddress].currencies[i])) == keccak256(abi.encodePacked(requests[requestedAddress].currency))){\r\n                index2 = i;\r\n                found2 = 1;\r\n            }\r\n        }\r\n\r\n        if(requests[requestedAddress].valid == 1 ){\r\n            if(requests[requestedAddress].toToken && (found2 == 1 || msg.sender == admin)){\r\n                require(ERC20(token).balanceOf(msg.sender) >= amount1, \"Insufficient Token\");\r\n                require(ERC20(token).allowance(msg.sender,address(this)) >= amount1, \"Insufficient Allowance\");\r\n                require(memberDetails[requestedAddress].currencyAmt[index2] >= amount2, \"Insufficient Currency\");\r\n                ERC20(token).transferFrom(msg.sender,address(this),amount1);\r\n                ERC20(token).transfer(requestedAddress, amount1);\r\n                sucess = 1;\r\n                requests[requestedAddress].valid = 0;\r\n                delete memRequested[index];\r\n\r\n                if(found1 == 0){\r\n                    memberDetails[msg.sender].currencies.push(requests[requestedAddress].currency);\r\n                    memberDetails[msg.sender].currencyAmt.push(amount2);\r\n                }else{\r\n                    memberDetails[msg.sender].currencyAmt[index1] += amount2;\r\n                }\r\n                memberDetails[requestedAddress].currencyAmt[index2] -= amount2;\r\n            }\r\n            if(requests[requestedAddress].fromToken == true && (found1 == 1 || msg.sender == admin)){\r\n                require(ERC20(token).balanceOf(requestedAddress) >= amount2, \"Insufficient Token\");\r\n                require(ERC20(token).allowance(requestedAddress, address(this)) >= amount2, \"Insufficient Allowance\");\r\n\r\n                if(msg.sender != admin){\r\n                    require(memberDetails[msg.sender].currencyAmt[index1] >= amount1, \"Insufficient Currency\");\r\n                    memberDetails[msg.sender].currencyAmt[index1] -= amount1;\r\n                }\r\n                if(found2 == 0){\r\n                        memberDetails[requestedAddress].currencies.push(requests[requestedAddress].currency);\r\n                        memberDetails[requestedAddress].currencyAmt.push(amount1);\r\n                    }\r\n                    else{\r\n                        memberDetails[requestedAddress].currencyAmt[index2] += amount1;\r\n                }\r\n                ERC20(token).transferFrom(requestedAddress,address(this), amount2);\r\n                ERC20(token).transfer(msg.sender, amount2);\r\n                sucess = 1;\r\n                requests[requestedAddress].valid = 0;\r\n                delete memRequested[index];\r\n            }\r\n        }else{\r\n            revert();\r\n        }\r\n    }\r\n\r\n    function getMemRequested() public onlyMembers view returns(address[] memory){\r\n        return memRequested;\r\n    }\r\n\r\n    function getDetail (address member) public onlyMembers view returns(string memory, uint256, uint256, address, bool, bool,uint){\r\n        return (requests[member].currency,requests[member].fromAmt,requests[member].toAmt,requests[member].fromMember,requests[member].toToken,requests[member].fromToken,requests[member].valid);\r\n    }\r\n\r\n\r\n    function cancelRequest () public onlyMembers{\r\n        uint index=0;\r\n        for(uint i=0; i<memRequested.length; i++){\r\n            if(memRequested[i] == msg.sender){\r\n                index = i;\r\n            }\r\n        }\r\n        requests[msg.sender].valid = 0;\r\n        delete memRequested[index];\r\n    }\r\n\r\n    function getStatus() public view returns(string[] memory, uint[] memory){\r\n        return(memberDetails[msg.sender].currencies, memberDetails[msg.sender].currencyAmt);\r\n    }\r\n\r\n\r\n    function clean() public onlyAdmin{\r\n        delete memRequested;\r\n    }\r\n\r\n}\r\n",
  "sourcePath": "C:\\Users\\NoCode\\Desktop\\DAPP_526\\cur-contract\\contracts\\Exchange.sol",
  "compiler": {
    "name": "solc",
    "version": "0.8.0+commit.c7dfd78e.Emscripten.clang"
  },
  "schemaVersion": "3.4.3",
  "updatedAt": "2021-12-05T06:41:49.248Z",
  "devdoc": {
    "kind": "dev",
    "methods": {},
    "version": 1
  },
  "userdoc": {
    "kind": "user",
    "methods": {},
    "version": 1
  }
}