{
  "contractName": "exchangecur",
  "abi": [
    {
      "inputs": [],
      "stateMutability": "nonpayable",
      "type": "constructor"
    },
    {
      "inputs": [],
      "name": "register",
      "outputs": [],
      "stateMutability": "nonpayable",
      "type": "function"
    },
    {
      "inputs": [],
      "name": "unRegister",
      "outputs": [],
      "stateMutability": "nonpayable",
      "type": "function"
    },
    {
      "inputs": [
        {
          "internalType": "string",
          "name": "currency",
          "type": "string"
        },
        {
          "internalType": "uint256",
          "name": "fromAmt",
          "type": "uint256"
        },
        {
          "internalType": "uint256",
          "name": "toAmt",
          "type": "uint256"
        }
      ],
      "name": "requestforToken",
      "outputs": [],
      "stateMutability": "payable",
      "type": "function",
      "payable": true
    },
    {
      "inputs": [
        {
          "internalType": "string",
          "name": "currency",
          "type": "string"
        },
        {
          "internalType": "uint256",
          "name": "fromAmt",
          "type": "uint256"
        },
        {
          "internalType": "uint256",
          "name": "toAmt",
          "type": "uint256"
        }
      ],
      "name": "requestforCur",
      "outputs": [],
      "stateMutability": "payable",
      "type": "function",
      "payable": true
    },
    {
      "inputs": [
        {
          "internalType": "address",
          "name": "requestedAddress",
          "type": "address"
        }
      ],
      "name": "approveRequest",
      "outputs": [],
      "stateMutability": "payable",
      "type": "function",
      "payable": true
    },
    {
      "inputs": [],
      "name": "getMemRequested",
      "outputs": [
        {
          "internalType": "address[]",
          "name": "",
          "type": "address[]"
        }
      ],
      "stateMutability": "view",
      "type": "function",
      "constant": true
    },
    {
      "inputs": [
        {
          "internalType": "address",
          "name": "member",
          "type": "address"
        }
      ],
      "name": "getDetailByMem",
      "outputs": [
        {
          "internalType": "string",
          "name": "",
          "type": "string"
        },
        {
          "internalType": "uint256",
          "name": "",
          "type": "uint256"
        },
        {
          "internalType": "uint256",
          "name": "",
          "type": "uint256"
        },
        {
          "internalType": "address",
          "name": "",
          "type": "address"
        },
        {
          "internalType": "bool",
          "name": "",
          "type": "bool"
        },
        {
          "internalType": "bool",
          "name": "",
          "type": "bool"
        },
        {
          "internalType": "uint256",
          "name": "",
          "type": "uint256"
        }
      ],
      "stateMutability": "view",
      "type": "function",
      "constant": true
    },
    {
      "inputs": [],
      "name": "getDetail",
      "outputs": [
        {
          "internalType": "string[]",
          "name": "",
          "type": "string[]"
        },
        {
          "internalType": "uint256[]",
          "name": "",
          "type": "uint256[]"
        },
        {
          "internalType": "uint256[]",
          "name": "",
          "type": "uint256[]"
        },
        {
          "internalType": "address[]",
          "name": "",
          "type": "address[]"
        },
        {
          "internalType": "bool[]",
          "name": "",
          "type": "bool[]"
        },
        {
          "internalType": "bool[]",
          "name": "",
          "type": "bool[]"
        },
        {
          "internalType": "uint256[]",
          "name": "",
          "type": "uint256[]"
        },
        {
          "internalType": "string",
          "name": "",
          "type": "string"
        }
      ],
      "stateMutability": "view",
      "type": "function",
      "constant": true
    },
    {
      "inputs": [],
      "name": "cancelRequest",
      "outputs": [],
      "stateMutability": "nonpayable",
      "type": "function"
    },
    {
      "inputs": [],
      "name": "getStatus",
      "outputs": [
        {
          "internalType": "uint256",
          "name": "",
          "type": "uint256"
        },
        {
          "internalType": "uint256",
          "name": "",
          "type": "uint256"
        }
      ],
      "stateMutability": "view",
      "type": "function",
      "constant": true
    },
    {
      "inputs": [
        {
          "internalType": "uint256",
          "name": "index",
          "type": "uint256"
        }
      ],
      "name": "getCurrency",
      "outputs": [
        {
          "internalType": "string",
          "name": "",
          "type": "string"
        },
        {
          "internalType": "uint256",
          "name": "",
          "type": "uint256"
        }
      ],
      "stateMutability": "view",
      "type": "function",
      "constant": true
    },
    {
      "inputs": [],
      "name": "clean",
      "outputs": [],
      "stateMutability": "nonpayable",
      "type": "function"
    }
  ],
  "bytecode": "0x608060405273e14318bdd9fc8dcd43e3ef5738baad5d0db00dbd6000806101000a81548173ffffffffffffffffffffffffffffffffffffffff021916908373ffffffffffffffffffffffffffffffffffffffff16021790555034801561006457600080fd5b5033600160006101000a81548173ffffffffffffffffffffffffffffffffffffffff021916908373ffffffffffffffffffffffffffffffffffffffff16021790555061474b806100b56000396000f3fe6080604052600436106100a75760003560e01c80635b2a4cff116100645780635b2a4cff1461016957806366f9a4d11461019b578063851b16f5146101b7578063a07ae4f8146101ce578063cdf9b77e14610211578063fc4333cd1461024f576100a7565b8063061dff9a146100ac5780631705af14146100c8578063191725d1146100f35780631aa3a0081461010f57806326d7b3b4146101265780634e69d5601461013d575b600080fd5b6100c660048036038101906100c19190613aa6565b610266565b005b3480156100d457600080fd5b506100dd611783565b6040516100ea91906140ea565b60405180910390f35b61010d60048036038101906101089190613af8565b611860565b005b34801561011b57600080fd5b50610124611e5c565b005b34801561013257600080fd5b5061013b611ea6565b005b34801561014957600080fd5b50610152611f3f565b6040516101609291906142e8565b60405180910390f35b34801561017557600080fd5b5061017e611fd3565b60405161019298979695949392919061410c565b60405180910390f35b6101b560048036038101906101b09190613af8565b612b84565b005b3480156101c357600080fd5b506101cc61316f565b005b3480156101da57600080fd5b506101f560048036038101906101f09190613aa6565b613331565b60405161020897969594939291906141f2565b60405180910390f35b34801561021d57600080fd5b5061023860048036038101906102339190613b5f565b61363e565b6040516102469291906141c2565b60405180910390f35b34801561025b57600080fd5b5061026461382f565b005b6001600360003373ffffffffffffffffffffffffffffffffffffffff1673ffffffffffffffffffffffffffffffffffffffff16815260200190815260200160002060000154146102b557600080fd5b6000600260008373ffffffffffffffffffffffffffffffffffffffff1673ffffffffffffffffffffffffffffffffffffffff1681526020019081526020016000206002015490506000600260008473ffffffffffffffffffffffffffffffffffffffff1673ffffffffffffffffffffffffffffffffffffffff16815260200190815260200160002060010154905060008060008060008060005b60048054905081101561040b578973ffffffffffffffffffffffffffffffffffffffff16600482815481106103ad577f4e487b7100000000000000000000000000000000000000000000000000000000600052603260045260246000fd5b9060005260206000200160009054906101000a900473ffffffffffffffffffffffffffffffffffffffff1673ffffffffffffffffffffffffffffffffffffffff1614156103f8578091505b8080610403906145e9565b91505061034f565b5060005b600360003373ffffffffffffffffffffffffffffffffffffffff1673ffffffffffffffffffffffffffffffffffffffff1681526020019081526020016000206001018054905081101561058f57600260003373ffffffffffffffffffffffffffffffffffffffff1673ffffffffffffffffffffffffffffffffffffffff1681526020019081526020016000206000016040516020016104ae919061402f565b60405160208183030381529060405280519060200120600360003373ffffffffffffffffffffffffffffffffffffffff1673ffffffffffffffffffffffffffffffffffffffff168152602001908152602001600020600101828154811061053e577f4e487b7100000000000000000000000000000000000000000000000000000000600052603260045260246000fd5b90600052602060002001604051602001610558919061402f565b60405160208183030381529060405280519060200120141561057c57809650600194505b8080610587906145e9565b91505061040f565b5060005b600360008b73ffffffffffffffffffffffffffffffffffffffff1673ffffffffffffffffffffffffffffffffffffffff1681526020019081526020016000206001018054905081101561071357600260008b73ffffffffffffffffffffffffffffffffffffffff1673ffffffffffffffffffffffffffffffffffffffff168152602001908152602001600020600001604051602001610632919061402f565b60405160208183030381529060405280519060200120600360008c73ffffffffffffffffffffffffffffffffffffffff1673ffffffffffffffffffffffffffffffffffffffff16815260200190815260200160002060010182815481106106c2577f4e487b7100000000000000000000000000000000000000000000000000000000600052603260045260246000fd5b906000526020600020016040516020016106dc919061402f565b60405160208183030381529060405280519060200120141561070057809550600193505b808061070b906145e9565b915050610593565b506001600260008b73ffffffffffffffffffffffffffffffffffffffff1673ffffffffffffffffffffffffffffffffffffffff16815260200190815260200160002060040154141561177357600260008a73ffffffffffffffffffffffffffffffffffffffff1673ffffffffffffffffffffffffffffffffffffffff16815260200190815260200160002060030160149054906101000a900460ff168015610813575060018314806108125750600160009054906101000a900473ffffffffffffffffffffffffffffffffffffffff1673ffffffffffffffffffffffffffffffffffffffff163373ffffffffffffffffffffffffffffffffffffffff16145b5b15610f38578760008054906101000a900473ffffffffffffffffffffffffffffffffffffffff1673ffffffffffffffffffffffffffffffffffffffff166370a08231336040518263ffffffff1660e01b81526004016108729190614046565b60206040518083038186803b15801561088a57600080fd5b505afa15801561089e573d6000803e3d6000fd5b505050506040513d601f19601f820116820180604052508101906108c29190613b88565b1015610903576040517f08c379a00000000000000000000000000000000000000000000000000000000081526004016108fa90614288565b60405180910390fd5b8760008054906101000a900473ffffffffffffffffffffffffffffffffffffffff1673ffffffffffffffffffffffffffffffffffffffff1663dd62ed3e33306040518363ffffffff1660e01b815260040161095f929190614061565b60206040518083038186803b15801561097757600080fd5b505afa15801561098b573d6000803e3d6000fd5b505050506040513d601f19601f820116820180604052508101906109af9190613b88565b10156109f0576040517f08c379a00000000000000000000000000000000000000000000000000000000081526004016109e790614268565b60405180910390fd5b86600360008b73ffffffffffffffffffffffffffffffffffffffff1673ffffffffffffffffffffffffffffffffffffffff1681526020019081526020016000206002018681548110610a6b577f4e487b7100000000000000000000000000000000000000000000000000000000600052603260045260246000fd5b90600052602060002001541015610ab7576040517f08c379a0000000000000000000000000000000000000000000000000000000008152600401610aae906142c8565b60405180910390fd5b60008054906101000a900473ffffffffffffffffffffffffffffffffffffffff1673ffffffffffffffffffffffffffffffffffffffff166323b872dd33308b6040518463ffffffff1660e01b8152600401610b149392919061408a565b602060405180830381600087803b158015610b2e57600080fd5b505af1158015610b42573d6000803e3d6000fd5b505050506040513d601f19601f82011682018060405250810190610b669190613acf565b5060008054906101000a900473ffffffffffffffffffffffffffffffffffffffff1673ffffffffffffffffffffffffffffffffffffffff1663a9059cbb8a8a6040518363ffffffff1660e01b8152600401610bc29291906140c1565b602060405180830381600087803b158015610bdc57600080fd5b505af1158015610bf0573d6000803e3d6000fd5b505050506040513d601f19601f82011682018060405250810190610c149190613acf565b50600191506000600260008b73ffffffffffffffffffffffffffffffffffffffff1673ffffffffffffffffffffffffffffffffffffffff1681526020019081526020016000206004018190555060048181548110610c9b577f4e487b7100000000000000000000000000000000000000000000000000000000600052603260045260246000fd5b9060005260206000200160006101000a81549073ffffffffffffffffffffffffffffffffffffffff02191690556000841415610e0057600360003373ffffffffffffffffffffffffffffffffffffffff1673ffffffffffffffffffffffffffffffffffffffff168152602001908152602001600020600101600260008b73ffffffffffffffffffffffffffffffffffffffff1673ffffffffffffffffffffffffffffffffffffffff16815260200190815260200160002060000190806001815401808255809150506001900390600052602060002001600090919091909150908054610d86906145b7565b610d91929190613899565b50600360003373ffffffffffffffffffffffffffffffffffffffff1673ffffffffffffffffffffffffffffffffffffffff168152602001908152602001600020600201879080600181540180825580915050600190039060005260206000200160009091909190915055610e9c565b86600360003373ffffffffffffffffffffffffffffffffffffffff1673ffffffffffffffffffffffffffffffffffffffff1681526020019081526020016000206002018781548110610e7b577f4e487b7100000000000000000000000000000000000000000000000000000000600052603260045260246000fd5b906000526020600020016000828254610e9491906144a3565b925050819055505b86600360008b73ffffffffffffffffffffffffffffffffffffffff1673ffffffffffffffffffffffffffffffffffffffff1681526020019081526020016000206002018681548110610f17577f4e487b7100000000000000000000000000000000000000000000000000000000600052603260045260246000fd5b906000526020600020016000828254610f3091906144f9565b925050819055505b60011515600260008b73ffffffffffffffffffffffffffffffffffffffff1673ffffffffffffffffffffffffffffffffffffffff16815260200190815260200160002060030160159054906101000a900460ff161515148015610ff357506001841480610ff25750600160009054906101000a900473ffffffffffffffffffffffffffffffffffffffff1673ffffffffffffffffffffffffffffffffffffffff163373ffffffffffffffffffffffffffffffffffffffff16145b5b1561176e578660008054906101000a900473ffffffffffffffffffffffffffffffffffffffff1673ffffffffffffffffffffffffffffffffffffffff166370a082318b6040518263ffffffff1660e01b81526004016110529190614046565b60206040518083038186803b15801561106a57600080fd5b505afa15801561107e573d6000803e3d6000fd5b505050506040513d601f19601f820116820180604052508101906110a29190613b88565b10156110e3576040517f08c379a00000000000000000000000000000000000000000000000000000000081526004016110da90614288565b60405180910390fd5b8660008054906101000a900473ffffffffffffffffffffffffffffffffffffffff1673ffffffffffffffffffffffffffffffffffffffff1663dd62ed3e8b306040518363ffffffff1660e01b815260040161113f929190614061565b60206040518083038186803b15801561115757600080fd5b505afa15801561116b573d6000803e3d6000fd5b505050506040513d601f19601f8201168201806040525081019061118f9190613b88565b10156111d0576040517f08c379a00000000000000000000000000000000000000000000000000000000081526004016111c790614268565b60405180910390fd5b600160009054906101000a900473ffffffffffffffffffffffffffffffffffffffff1673ffffffffffffffffffffffffffffffffffffffff163373ffffffffffffffffffffffffffffffffffffffff16146113885787600360003373ffffffffffffffffffffffffffffffffffffffff1673ffffffffffffffffffffffffffffffffffffffff16815260200190815260200160002060020187815481106112a0577f4e487b7100000000000000000000000000000000000000000000000000000000600052603260045260246000fd5b906000526020600020015410156112ec576040517f08c379a00000000000000000000000000000000000000000000000000000000081526004016112e3906142c8565b60405180910390fd5b87600360003373ffffffffffffffffffffffffffffffffffffffff1673ffffffffffffffffffffffffffffffffffffffff1681526020019081526020016000206002018781548110611367577f4e487b7100000000000000000000000000000000000000000000000000000000600052603260045260246000fd5b90600052602060002001600082825461138091906144f9565b925050819055505b60008314156114c057600360008a73ffffffffffffffffffffffffffffffffffffffff1673ffffffffffffffffffffffffffffffffffffffff168152602001908152602001600020600101600260008b73ffffffffffffffffffffffffffffffffffffffff1673ffffffffffffffffffffffffffffffffffffffff16815260200190815260200160002060000190806001815401808255809150506001900390600052602060002001600090919091909150908054611446906145b7565b611451929190613899565b50600360008a73ffffffffffffffffffffffffffffffffffffffff1673ffffffffffffffffffffffffffffffffffffffff16815260200190815260200160002060020188908060018154018082558091505060019003906000526020600020016000909190919091505561155c565b87600360008b73ffffffffffffffffffffffffffffffffffffffff1673ffffffffffffffffffffffffffffffffffffffff168152602001908152602001600020600201868154811061153b577f4e487b7100000000000000000000000000000000000000000000000000000000600052603260045260246000fd5b90600052602060002001600082825461155491906144a3565b925050819055505b60008054906101000a900473ffffffffffffffffffffffffffffffffffffffff1673ffffffffffffffffffffffffffffffffffffffff166323b872dd8a308a6040518463ffffffff1660e01b81526004016115b99392919061408a565b602060405180830381600087803b1580156115d357600080fd5b505af11580156115e7573d6000803e3d6000fd5b505050506040513d601f19601f8201168201806040525081019061160b9190613acf565b5060008054906101000a900473ffffffffffffffffffffffffffffffffffffffff1673ffffffffffffffffffffffffffffffffffffffff1663a9059cbb33896040518363ffffffff1660e01b81526004016116679291906140c1565b602060405180830381600087803b15801561168157600080fd5b505af1158015611695573d6000803e3d6000fd5b505050506040513d601f19601f820116820180604052508101906116b99190613acf565b50600191506000600260008b73ffffffffffffffffffffffffffffffffffffffff1673ffffffffffffffffffffffffffffffffffffffff1681526020019081526020016000206004018190555060048181548110611740577f4e487b7100000000000000000000000000000000000000000000000000000000600052603260045260246000fd5b9060005260206000200160006101000a81549073ffffffffffffffffffffffffffffffffffffffff02191690555b611778565b600080fd5b505050505050505050565b60606001600360003373ffffffffffffffffffffffffffffffffffffffff1673ffffffffffffffffffffffffffffffffffffffff16815260200190815260200160002060000154146117d457600080fd5b600480548060200260200160405190810160405280929190818152602001828054801561185657602002820191906000526020600020905b8160009054906101000a900473ffffffffffffffffffffffffffffffffffffffff1673ffffffffffffffffffffffffffffffffffffffff168152602001906001019080831161180c575b5050505050905090565b6001600360003373ffffffffffffffffffffffffffffffffffffffff1673ffffffffffffffffffffffffffffffffffffffff16815260200190815260200160002060000154146118af57600080fd5b6005839080600181540180825580915050600190039060005260206000200160009091909190915090805190602001906118ea929190613926565b508160008054906101000a900473ffffffffffffffffffffffffffffffffffffffff1673ffffffffffffffffffffffffffffffffffffffff166370a08231336040518263ffffffff1660e01b81526004016119459190614046565b60206040518083038186803b15801561195d57600080fd5b505afa158015611971573d6000803e3d6000fd5b505050506040513d601f19601f820116820180604052508101906119959190613b88565b10156119d6576040517f08c379a00000000000000000000000000000000000000000000000000000000081526004016119cd90614288565b60405180910390fd5b8160008054906101000a900473ffffffffffffffffffffffffffffffffffffffff1673ffffffffffffffffffffffffffffffffffffffff1663dd62ed3e33306040518363ffffffff1660e01b8152600401611a32929190614061565b60206040518083038186803b158015611a4a57600080fd5b505afa158015611a5e573d6000803e3d6000fd5b505050506040513d601f19601f82011682018060405250810190611a829190613b88565b1015611ac3576040517f08c379a0000000000000000000000000000000000000000000000000000000008152600401611aba90614268565b60405180910390fd5b82600260003373ffffffffffffffffffffffffffffffffffffffff1673ffffffffffffffffffffffffffffffffffffffff1681526020019081526020016000206000019080519060200190611b19929190613926565b5081600260003373ffffffffffffffffffffffffffffffffffffffff1673ffffffffffffffffffffffffffffffffffffffff1681526020019081526020016000206001018190555080600260003373ffffffffffffffffffffffffffffffffffffffff1673ffffffffffffffffffffffffffffffffffffffff168152602001908152602001600020600201819055506000600260003373ffffffffffffffffffffffffffffffffffffffff1673ffffffffffffffffffffffffffffffffffffffff16815260200190815260200160002060030160146101000a81548160ff0219169083151502179055506001600260003373ffffffffffffffffffffffffffffffffffffffff1673ffffffffffffffffffffffffffffffffffffffff16815260200190815260200160002060030160156101000a81548160ff02191690831515021790555033600260003373ffffffffffffffffffffffffffffffffffffffff1673ffffffffffffffffffffffffffffffffffffffff16815260200190815260200160002060030160006101000a81548173ffffffffffffffffffffffffffffffffffffffff021916908373ffffffffffffffffffffffffffffffffffffffff1602179055506001600260003373ffffffffffffffffffffffffffffffffffffffff1673ffffffffffffffffffffffffffffffffffffffff168152602001908152602001600020600401819055506000805b600480549050811015611de8573373ffffffffffffffffffffffffffffffffffffffff1660048281548110611d89577f4e487b7100000000000000000000000000000000000000000000000000000000600052603260045260246000fd5b9060005260206000200160009054906101000a900473ffffffffffffffffffffffffffffffffffffffff1673ffffffffffffffffffffffffffffffffffffffff161415611dd557600191505b8080611de0906145e9565b915050611d2b565b506000811415611e56576004339080600181540180825580915050600190039060005260206000200160009091909190916101000a81548173ffffffffffffffffffffffffffffffffffffffff021916908373ffffffffffffffffffffffffffffffffffffffff1602179055505b50505050565b6001600360003373ffffffffffffffffffffffffffffffffffffffff1673ffffffffffffffffffffffffffffffffffffffff16815260200190815260200160002060000181905550565b6001600360003373ffffffffffffffffffffffffffffffffffffffff1673ffffffffffffffffffffffffffffffffffffffff1681526020019081526020016000206000015414611ef557600080fd5b6000600360003373ffffffffffffffffffffffffffffffffffffffff1673ffffffffffffffffffffffffffffffffffffffff16815260200190815260200160002060000181905550565b600080600360003373ffffffffffffffffffffffffffffffffffffffff1673ffffffffffffffffffffffffffffffffffffffff16815260200190815260200160002060000154600360003373ffffffffffffffffffffffffffffffffffffffff1673ffffffffffffffffffffffffffffffffffffffff16815260200190815260200160002060010180549050915091509091565b6060806060806060806060806001600360003373ffffffffffffffffffffffffffffffffffffffff1673ffffffffffffffffffffffffffffffffffffffff168152602001908152602001600020600001541461202e57600080fd5b600060048054905067ffffffffffffffff811115612075577f4e487b7100000000000000000000000000000000000000000000000000000000600052604160045260246000fd5b6040519080825280602002602001820160405280156120a857816020015b60608152602001906001900390816120935790505b509050600060048054905067ffffffffffffffff8111156120f2577f4e487b7100000000000000000000000000000000000000000000000000000000600052604160045260246000fd5b6040519080825280602002602001820160405280156121205781602001602082028036833780820191505090505b509050600060048054905067ffffffffffffffff81111561216a577f4e487b7100000000000000000000000000000000000000000000000000000000600052604160045260246000fd5b6040519080825280602002602001820160405280156121985781602001602082028036833780820191505090505b509050600060048054905067ffffffffffffffff8111156121e2577f4e487b7100000000000000000000000000000000000000000000000000000000600052604160045260246000fd5b6040519080825280602002602001820160405280156122105781602001602082028036833780820191505090505b509050600060048054905067ffffffffffffffff81111561225a577f4e487b7100000000000000000000000000000000000000000000000000000000600052604160045260246000fd5b6040519080825280602002602001820160405280156122885781602001602082028036833780820191505090505b509050600060048054905067ffffffffffffffff8111156122d2577f4e487b7100000000000000000000000000000000000000000000000000000000600052604160045260246000fd5b6040519080825280602002602001820160405280156123005781602001602082028036833780820191505090505b509050600060048054905067ffffffffffffffff81111561234a577f4e487b7100000000000000000000000000000000000000000000000000000000600052604160045260246000fd5b6040519080825280602002602001820160405280156123785781602001602082028036833780820191505090505b50905060005b600480549050811015612b0d5760026000600483815481106123c9577f4e487b7100000000000000000000000000000000000000000000000000000000600052603260045260246000fd5b9060005260206000200160009054906101000a900473ffffffffffffffffffffffffffffffffffffffff1673ffffffffffffffffffffffffffffffffffffffff1673ffffffffffffffffffffffffffffffffffffffff168152602001908152602001600020600001805461243c906145b7565b80601f0160208091040260200160405190810160405280929190818152602001828054612468906145b7565b80156124b55780601f1061248a576101008083540402835291602001916124b5565b820191906000526020600020905b81548152906001019060200180831161249857829003601f168201915b50505050508882815181106124f3577f4e487b7100000000000000000000000000000000000000000000000000000000600052603260045260246000fd5b6020026020010181905250600260006004838154811061253c577f4e487b7100000000000000000000000000000000000000000000000000000000600052603260045260246000fd5b9060005260206000200160009054906101000a900473ffffffffffffffffffffffffffffffffffffffff1673ffffffffffffffffffffffffffffffffffffffff1673ffffffffffffffffffffffffffffffffffffffff168152602001908152602001600020600101548782815181106125de577f4e487b7100000000000000000000000000000000000000000000000000000000600052603260045260246000fd5b6020026020010181815250506002600060048381548110612628577f4e487b7100000000000000000000000000000000000000000000000000000000600052603260045260246000fd5b9060005260206000200160009054906101000a900473ffffffffffffffffffffffffffffffffffffffff1673ffffffffffffffffffffffffffffffffffffffff1673ffffffffffffffffffffffffffffffffffffffff168152602001908152602001600020600201548682815181106126ca577f4e487b7100000000000000000000000000000000000000000000000000000000600052603260045260246000fd5b6020026020010181815250506002600060048381548110612714577f4e487b7100000000000000000000000000000000000000000000000000000000600052603260045260246000fd5b9060005260206000200160009054906101000a900473ffffffffffffffffffffffffffffffffffffffff1673ffffffffffffffffffffffffffffffffffffffff1673ffffffffffffffffffffffffffffffffffffffff16815260200190815260200160002060030160009054906101000a900473ffffffffffffffffffffffffffffffffffffffff168582815181106127d6577f4e487b7100000000000000000000000000000000000000000000000000000000600052603260045260246000fd5b602002602001019073ffffffffffffffffffffffffffffffffffffffff16908173ffffffffffffffffffffffffffffffffffffffff1681525050600260006004838154811061284e577f4e487b7100000000000000000000000000000000000000000000000000000000600052603260045260246000fd5b9060005260206000200160009054906101000a900473ffffffffffffffffffffffffffffffffffffffff1673ffffffffffffffffffffffffffffffffffffffff1673ffffffffffffffffffffffffffffffffffffffff16815260200190815260200160002060030160149054906101000a900460ff168482815181106128fd577f4e487b7100000000000000000000000000000000000000000000000000000000600052603260045260246000fd5b602002602001019015159081151581525050600260006004838154811061294d577f4e487b7100000000000000000000000000000000000000000000000000000000600052603260045260246000fd5b9060005260206000200160009054906101000a900473ffffffffffffffffffffffffffffffffffffffff1673ffffffffffffffffffffffffffffffffffffffff1673ffffffffffffffffffffffffffffffffffffffff16815260200190815260200160002060030160159054906101000a900460ff168382815181106129fc577f4e487b7100000000000000000000000000000000000000000000000000000000600052603260045260246000fd5b6020026020010190151590811515815250506002600060048381548110612a4c577f4e487b7100000000000000000000000000000000000000000000000000000000600052603260045260246000fd5b9060005260206000200160009054906101000a900473ffffffffffffffffffffffffffffffffffffffff1673ffffffffffffffffffffffffffffffffffffffff1673ffffffffffffffffffffffffffffffffffffffff16815260200190815260200160002060040154828281518110612aee577f4e487b7100000000000000000000000000000000000000000000000000000000600052603260045260246000fd5b6020026020010181815250508080612b05906145e9565b91505061237e565b50868686868686868d60018f51612b2491906144f9565b81518110612b5b577f4e487b7100000000000000000000000000000000000000000000000000000000600052603260045260246000fd5b60200260200101519e509e509e509e509e509e509e509e50505050505050509091929394959697565b6001600360003373ffffffffffffffffffffffffffffffffffffffff1673ffffffffffffffffffffffffffffffffffffffff1681526020019081526020016000206000015414612bd357600080fd5b60005b600360003373ffffffffffffffffffffffffffffffffffffffff1673ffffffffffffffffffffffffffffffffffffffff168152602001908152602001600020600101805490508110156131695783604051602001612c349190614018565b60405160208183030381529060405280519060200120600360003373ffffffffffffffffffffffffffffffffffffffff1673ffffffffffffffffffffffffffffffffffffffff1681526020019081526020016000206001018281548110612cc4577f4e487b7100000000000000000000000000000000000000000000000000000000600052603260045260246000fd5b90600052602060002001604051602001612cde919061402f565b6040516020818303038152906040528051906020012014156131565782600360003373ffffffffffffffffffffffffffffffffffffffff1673ffffffffffffffffffffffffffffffffffffffff1681526020019081526020016000206002018281548110612d75577f4e487b7100000000000000000000000000000000000000000000000000000000600052603260045260246000fd5b90600052602060002001541015612dc1576040517f08c379a0000000000000000000000000000000000000000000000000000000008152600401612db8906142a8565b60405180910390fd5b83600260003373ffffffffffffffffffffffffffffffffffffffff1673ffffffffffffffffffffffffffffffffffffffff1681526020019081526020016000206000019080519060200190612e17929190613926565b5082600260003373ffffffffffffffffffffffffffffffffffffffff1673ffffffffffffffffffffffffffffffffffffffff1681526020019081526020016000206001018190555081600260003373ffffffffffffffffffffffffffffffffffffffff1673ffffffffffffffffffffffffffffffffffffffff168152602001908152602001600020600201819055506001600260003373ffffffffffffffffffffffffffffffffffffffff1673ffffffffffffffffffffffffffffffffffffffff16815260200190815260200160002060030160146101000a81548160ff0219169083151502179055506000600260003373ffffffffffffffffffffffffffffffffffffffff1673ffffffffffffffffffffffffffffffffffffffff16815260200190815260200160002060030160156101000a81548160ff02191690831515021790555033600260003373ffffffffffffffffffffffffffffffffffffffff1673ffffffffffffffffffffffffffffffffffffffff16815260200190815260200160002060030160006101000a81548173ffffffffffffffffffffffffffffffffffffffff021916908373ffffffffffffffffffffffffffffffffffffffff1602179055506001600260003373ffffffffffffffffffffffffffffffffffffffff1673ffffffffffffffffffffffffffffffffffffffff168152602001908152602001600020600401819055506000805b6004805490508110156130e6573373ffffffffffffffffffffffffffffffffffffffff1660048281548110613087577f4e487b7100000000000000000000000000000000000000000000000000000000600052603260045260246000fd5b9060005260206000200160009054906101000a900473ffffffffffffffffffffffffffffffffffffffff1673ffffffffffffffffffffffffffffffffffffffff1614156130d357600191505b80806130de906145e9565b915050613029565b506000811415613154576004339080600181540180825580915050600190039060005260206000200160009091909190916101000a81548173ffffffffffffffffffffffffffffffffffffffff021916908373ffffffffffffffffffffffffffffffffffffffff1602179055505b505b8080613161906145e9565b915050612bd6565b50505050565b6001600360003373ffffffffffffffffffffffffffffffffffffffff1673ffffffffffffffffffffffffffffffffffffffff16815260200190815260200160002060000154146131be57600080fd5b6000805b60048054905081101561327e573373ffffffffffffffffffffffffffffffffffffffff1660048281548110613220577f4e487b7100000000000000000000000000000000000000000000000000000000600052603260045260246000fd5b9060005260206000200160009054906101000a900473ffffffffffffffffffffffffffffffffffffffff1673ffffffffffffffffffffffffffffffffffffffff16141561326b578091505b8080613276906145e9565b9150506131c2565b506000600260003373ffffffffffffffffffffffffffffffffffffffff1673ffffffffffffffffffffffffffffffffffffffff1681526020019081526020016000206004018190555060048181548110613301577f4e487b7100000000000000000000000000000000000000000000000000000000600052603260045260246000fd5b9060005260206000200160006101000a81549073ffffffffffffffffffffffffffffffffffffffff021916905550565b60606000806000806000806001600360003373ffffffffffffffffffffffffffffffffffffffff1673ffffffffffffffffffffffffffffffffffffffff168152602001908152602001600020600001541461338b57600080fd5b600260008973ffffffffffffffffffffffffffffffffffffffff1673ffffffffffffffffffffffffffffffffffffffff168152602001908152602001600020600001600260008a73ffffffffffffffffffffffffffffffffffffffff1673ffffffffffffffffffffffffffffffffffffffff16815260200190815260200160002060010154600260008b73ffffffffffffffffffffffffffffffffffffffff1673ffffffffffffffffffffffffffffffffffffffff16815260200190815260200160002060020154600260008c73ffffffffffffffffffffffffffffffffffffffff1673ffffffffffffffffffffffffffffffffffffffff16815260200190815260200160002060030160009054906101000a900473ffffffffffffffffffffffffffffffffffffffff16600260008d73ffffffffffffffffffffffffffffffffffffffff1673ffffffffffffffffffffffffffffffffffffffff16815260200190815260200160002060030160149054906101000a900460ff16600260008e73ffffffffffffffffffffffffffffffffffffffff1673ffffffffffffffffffffffffffffffffffffffff16815260200190815260200160002060030160159054906101000a900460ff16600260008f73ffffffffffffffffffffffffffffffffffffffff1673ffffffffffffffffffffffffffffffffffffffff168152602001908152602001600020600401548680546135a5906145b7565b80601f01602080910402602001604051908101604052809291908181526020018280546135d1906145b7565b801561361e5780601f106135f35761010080835404028352916020019161361e565b820191906000526020600020905b81548152906001019060200180831161360157829003601f168201915b505050505096509650965096509650965096509650919395979092949650565b606060006001600360003373ffffffffffffffffffffffffffffffffffffffff1673ffffffffffffffffffffffffffffffffffffffff168152602001908152602001600020600001541461369157600080fd5b600360003373ffffffffffffffffffffffffffffffffffffffff1673ffffffffffffffffffffffffffffffffffffffff168152602001908152602001600020600101838154811061370b577f4e487b7100000000000000000000000000000000000000000000000000000000600052603260045260246000fd5b90600052602060002001600360003373ffffffffffffffffffffffffffffffffffffffff1673ffffffffffffffffffffffffffffffffffffffff168152602001908152602001600020600201848154811061378f577f4e487b7100000000000000000000000000000000000000000000000000000000600052603260045260246000fd5b90600052602060002001548180546137a6906145b7565b80601f01602080910402602001604051908101604052809291908181526020018280546137d2906145b7565b801561381f5780601f106137f45761010080835404028352916020019161381f565b820191906000526020600020905b81548152906001019060200180831161380257829003601f168201915b5050505050915091509150915091565b600160009054906101000a900473ffffffffffffffffffffffffffffffffffffffff1673ffffffffffffffffffffffffffffffffffffffff163373ffffffffffffffffffffffffffffffffffffffff161461388957600080fd5b6004600061389791906139ac565b565b8280546138a5906145b7565b90600052602060002090601f0160209004810192826138c75760008555613915565b82601f106138d85780548555613915565b8280016001018555821561391557600052602060002091601f016020900482015b828111156139145782548255916001019190600101906138f9565b5b50905061392291906139cd565b5090565b828054613932906145b7565b90600052602060002090601f016020900481019282613954576000855561399b565b82601f1061396d57805160ff191683800117855561399b565b8280016001018555821561399b579182015b8281111561399a57825182559160200191906001019061397f565b5b5090506139a891906139cd565b5090565b50805460008255906000526020600020908101906139ca91906139cd565b50565b5b808211156139e65760008160009055506001016139ce565b5090565b60006139fd6139f884614342565b614311565b905082815260208101848484011115613a1557600080fd5b613a20848285614575565b509392505050565b600081359050613a37816146d0565b92915050565b600081519050613a4c816146e7565b92915050565b600082601f830112613a6357600080fd5b8135613a738482602086016139ea565b91505092915050565b600081359050613a8b816146fe565b92915050565b600081519050613aa0816146fe565b92915050565b600060208284031215613ab857600080fd5b6000613ac684828501613a28565b91505092915050565b600060208284031215613ae157600080fd5b6000613aef84828501613a3d565b91505092915050565b600080600060608486031215613b0d57600080fd5b600084013567ffffffffffffffff811115613b2757600080fd5b613b3386828701613a52565b9350506020613b4486828701613a7c565b9250506040613b5586828701613a7c565b9150509250925092565b600060208284031215613b7157600080fd5b6000613b7f84828501613a7c565b91505092915050565b600060208284031215613b9a57600080fd5b6000613ba884828501613a91565b91505092915050565b6000613bbd8383613c0d565b60208301905092915050565b6000613bd58383613dba565b60208301905092915050565b6000613bed8383613dd8565b905092915050565b6000613c018383613ffa565b60208301905092915050565b613c168161452d565b82525050565b613c258161452d565b82525050565b6000613c36826143c7565b613c408185614432565b9350613c4b83614372565b8060005b83811015613c7c578151613c638882613bb1565b9750613c6e836143fe565b925050600181019050613c4f565b5085935050505092915050565b6000613c94826143d2565b613c9e8185614443565b9350613ca983614382565b8060005b83811015613cda578151613cc18882613bc9565b9750613ccc8361440b565b925050600181019050613cad565b5085935050505092915050565b6000613cf2826143dd565b613cfc8185614454565b935083602082028501613d0e85614392565b8060005b85811015613d4a5784840389528151613d2b8582613be1565b9450613d3683614418565b925060208a01995050600181019050613d12565b50829750879550505050505092915050565b6000613d67826143e8565b613d718185614465565b9350613d7c836143a2565b8060005b83811015613dad578151613d948882613bf5565b9750613d9f83614425565b925050600181019050613d80565b5085935050505092915050565b613dc38161453f565b82525050565b613dd28161453f565b82525050565b6000613de3826143f3565b613ded8185614476565b9350613dfd818560208601614584565b613e06816146bf565b840191505092915050565b6000613e1c826143f3565b613e268185614487565b9350613e36818560208601614584565b613e3f816146bf565b840191505092915050565b6000613e55826143f3565b613e5f8185614498565b9350613e6f818560208601614584565b80840191505092915050565b60008154613e88816145b7565b613e928186614498565b94506001821660008114613ead5760018114613ebe57613ef1565b60ff19831686528186019350613ef1565b613ec7856143b2565b60005b83811015613ee957815481890152600182019150602081019050613eca565b838801955050505b50505092915050565b6000613f07601683614487565b91507f496e73756666696369656e7420416c6c6f77616e6365000000000000000000006000830152602082019050919050565b6000613f47601283614487565b91507f496e73756666696369656e7420546f6b656e00000000000000000000000000006000830152602082019050919050565b6000613f87601383614487565b91507f496e73756666696369656e7420616d6f756e74000000000000000000000000006000830152602082019050919050565b6000613fc7601583614487565b91507f496e73756666696369656e742043757272656e637900000000000000000000006000830152602082019050919050565b6140038161456b565b82525050565b6140128161456b565b82525050565b60006140248284613e4a565b915081905092915050565b600061403b8284613e7b565b915081905092915050565b600060208201905061405b6000830184613c1c565b92915050565b60006040820190506140766000830185613c1c565b6140836020830184613c1c565b9392505050565b600060608201905061409f6000830186613c1c565b6140ac6020830185613c1c565b6140b96040830184614009565b949350505050565b60006040820190506140d66000830185613c1c565b6140e36020830184614009565b9392505050565b600060208201905081810360008301526141048184613c2b565b905092915050565b6000610100820190508181036000830152614127818b613ce7565b9050818103602083015261413b818a613d5c565b9050818103604083015261414f8189613d5c565b905081810360608301526141638188613c2b565b905081810360808301526141778187613c89565b905081810360a083015261418b8186613c89565b905081810360c083015261419f8185613d5c565b905081810360e08301526141b38184613e11565b90509998505050505050505050565b600060408201905081810360008301526141dc8185613e11565b90506141eb6020830184614009565b9392505050565b600060e082019050818103600083015261420c818a613e11565b905061421b6020830189614009565b6142286040830188614009565b6142356060830187613c1c565b6142426080830186613dc9565b61424f60a0830185613dc9565b61425c60c0830184614009565b98975050505050505050565b6000602082019050818103600083015261428181613efa565b9050919050565b600060208201905081810360008301526142a181613f3a565b9050919050565b600060208201905081810360008301526142c181613f7a565b9050919050565b600060208201905081810360008301526142e181613fba565b9050919050565b60006040820190506142fd6000830185614009565b61430a6020830184614009565b9392505050565b6000604051905081810181811067ffffffffffffffff8211171561433857614337614690565b5b8060405250919050565b600067ffffffffffffffff82111561435d5761435c614690565b5b601f19601f8301169050602081019050919050565b6000819050602082019050919050565b6000819050602082019050919050565b6000819050602082019050919050565b6000819050602082019050919050565b60008190508160005260206000209050919050565b600081519050919050565b600081519050919050565b600081519050919050565b600081519050919050565b600081519050919050565b6000602082019050919050565b6000602082019050919050565b6000602082019050919050565b6000602082019050919050565b600082825260208201905092915050565b600082825260208201905092915050565b600082825260208201905092915050565b600082825260208201905092915050565b600082825260208201905092915050565b600082825260208201905092915050565b600081905092915050565b60006144ae8261456b565b91506144b98361456b565b9250827fffffffffffffffffffffffffffffffffffffffffffffffffffffffffffffffff038211156144ee576144ed614632565b5b828201905092915050565b60006145048261456b565b915061450f8361456b565b92508282101561452257614521614632565b5b828203905092915050565b60006145388261454b565b9050919050565b60008115159050919050565b600073ffffffffffffffffffffffffffffffffffffffff82169050919050565b6000819050919050565b82818337600083830152505050565b60005b838110156145a2578082015181840152602081019050614587565b838111156145b1576000848401525b50505050565b600060028204905060018216806145cf57607f821691505b602082108114156145e3576145e2614661565b5b50919050565b60006145f48261456b565b91507fffffffffffffffffffffffffffffffffffffffffffffffffffffffffffffffff82141561462757614626614632565b5b600182019050919050565b7f4e487b7100000000000000000000000000000000000000000000000000000000600052601160045260246000fd5b7f4e487b7100000000000000000000000000000000000000000000000000000000600052602260045260246000fd5b7f4e487b7100000000000000000000000000000000000000000000000000000000600052604160045260246000fd5b6000601f19601f8301169050919050565b6146d98161452d565b81146146e457600080fd5b50565b6146f08161453f565b81146146fb57600080fd5b50565b6147078161456b565b811461471257600080fd5b5056fea264697066735822122012aea80a03c88bf8d1e69dff26a330284c412d0c70c873bea5baee538d7ce22964736f6c63430008000033",
  "immutableReferences": {},
  "source": "pragma solidity 0.8.0;\r\npragma abicoder v2;\r\nimport \"@openzeppelin/contracts/token/ERC20/ERC20.sol\";\r\ncontract exchangecur{\r\n\r\n    struct reqDetails{\r\n        string currency;\r\n        uint256 fromAmt;\r\n        uint256 toAmt;\r\n        address fromMember;\r\n        bool toToken;\r\n        bool fromToken;\r\n        uint valid;\r\n    }\r\n\r\n    struct memDetails{\r\n        uint membership;\r\n        string[] currencies;\r\n        uint[] currencyAmt;\r\n    }\r\n\r\n    address token = 0xE14318bDD9fC8DCD43e3Ef5738bAAD5D0DB00dBd;\r\n    address admin;\r\n    mapping(address => reqDetails) requests;\r\n    mapping(address => memDetails) memberDetails;\r\n    address[] memRequested;\r\n    string[] ele;\r\n\r\n    modifier onlyAdmin () {\r\n        require(msg.sender==admin);\r\n        _;\r\n    }\r\n\r\n    modifier onlyMembers () {\r\n        require(memberDetails[msg.sender].membership == 1);\r\n        _;\r\n    }\r\n\r\n    constructor (){\r\n        admin = msg.sender;\r\n    }\r\n\r\n    function register () public{\r\n        memberDetails[msg.sender].membership = 1;\r\n    }\r\n\r\n    function unRegister () public onlyMembers{\r\n        memberDetails[msg.sender].membership = 0;\r\n    }\r\n\r\n    function requestforToken (string memory currency, uint256 fromAmt, uint256 toAmt) public onlyMembers payable{\r\n        for(uint i =0; i < memberDetails[msg.sender].currencies.length; i++){\r\n            if (keccak256(abi.encodePacked(memberDetails[msg.sender].currencies[i])) == keccak256(abi.encodePacked(currency))){\r\n                require(memberDetails[msg.sender].currencyAmt[i] >=  fromAmt, 'Insufficient amount');\r\n                requests[msg.sender].currency = currency;\r\n                requests[msg.sender].fromAmt = fromAmt;\r\n                requests[msg.sender].toAmt = toAmt;\r\n                requests[msg.sender].toToken = true;\r\n                requests[msg.sender].fromToken = false;\r\n                requests[msg.sender].fromMember = msg.sender;\r\n                requests[msg.sender].valid =1;\r\n\r\n                int found = 0;\r\n                for(uint j=0; j<memRequested.length; j++){\r\n                    if(memRequested[j] == msg.sender){\r\n                        found = 1;\r\n            }\r\n        }\r\n                if(found == 0){\r\n                    memRequested.push(msg.sender);\r\n                }\r\n            }\r\n        }\r\n    }\r\n\r\n    function requestforCur (string memory currency, uint256 fromAmt, uint256 toAmt) public onlyMembers payable{\r\n        ele.push(currency);\r\n        require(ERC20(token).balanceOf(msg.sender) >= fromAmt, \"Insufficient Token\");\r\n        require(ERC20(token).allowance(msg.sender, address(this)) >= fromAmt, \"Insufficient Allowance\");\r\n\r\n        requests[msg.sender].currency = currency;\r\n        requests[msg.sender].fromAmt = fromAmt;\r\n        requests[msg.sender].toAmt = toAmt;\r\n        requests[msg.sender].toToken = false;\r\n        requests[msg.sender].fromToken = true;\r\n        requests[msg.sender].fromMember = msg.sender;\r\n        requests[msg.sender].valid =1;\r\n\r\n        int found = 0;\r\n        for(uint j=0; j<memRequested.length; j++){\r\n            if(memRequested[j] == msg.sender){\r\n                found = 1;\r\n            }\r\n        }\r\n        if(found == 0){\r\n            memRequested.push(msg.sender);\r\n        }\r\n\r\n    }\r\n\r\n    function approveRequest (address requestedAddress) public onlyMembers payable{\r\n        uint amount1 = requests[requestedAddress].toAmt;\r\n        uint amount2 = requests[requestedAddress].fromAmt;\r\n        uint index1 =0;\r\n        uint index2 =0;\r\n        uint found1 =0;\r\n        uint found2 =0;\r\n        uint sucess =0;\r\n        uint index=0;\r\n\r\n        for(uint i=0; i<memRequested.length; i++){\r\n            if(memRequested[i] == requestedAddress){\r\n                index = i;\r\n            }\r\n        }\r\n\r\n        for (uint i=0; i < memberDetails[msg.sender].currencies.length; i++){\r\n            if (keccak256(abi.encodePacked(memberDetails[msg.sender].currencies[i])) == keccak256(abi.encodePacked(requests[msg.sender].currency))){\r\n                index1 = i;\r\n                found1 = 1;\r\n            }\r\n        }\r\n\r\n        for (uint i=0; i < memberDetails[requestedAddress].currencies.length; i++){\r\n            if (keccak256(abi.encodePacked(memberDetails[requestedAddress].currencies[i])) == keccak256(abi.encodePacked(requests[requestedAddress].currency))){\r\n                index2 = i;\r\n                found2 = 1;\r\n            }\r\n        }\r\n\r\n        if(requests[requestedAddress].valid == 1 ){\r\n            if(requests[requestedAddress].toToken && (found2 == 1 || msg.sender == admin)){\r\n                require(ERC20(token).balanceOf(msg.sender) >= amount1, \"Insufficient Token\");\r\n                require(ERC20(token).allowance(msg.sender,address(this)) >= amount1, \"Insufficient Allowance\");\r\n                require(memberDetails[requestedAddress].currencyAmt[index2] >= amount2, \"Insufficient Currency\");\r\n                ERC20(token).transferFrom(msg.sender,address(this),amount1);\r\n                ERC20(token).transfer(requestedAddress, amount1);\r\n                sucess = 1;\r\n                requests[requestedAddress].valid = 0;\r\n                delete memRequested[index];\r\n\r\n                if(found1 == 0){\r\n                    memberDetails[msg.sender].currencies.push(requests[requestedAddress].currency);\r\n                    memberDetails[msg.sender].currencyAmt.push(amount2);\r\n                }else{\r\n                    memberDetails[msg.sender].currencyAmt[index1] += amount2;\r\n                }\r\n                memberDetails[requestedAddress].currencyAmt[index2] -= amount2;\r\n            }\r\n            if(requests[requestedAddress].fromToken == true && (found1 == 1 || msg.sender == admin)){\r\n                require(ERC20(token).balanceOf(requestedAddress) >= amount2, \"Insufficient Token\");\r\n                require(ERC20(token).allowance(requestedAddress, address(this)) >= amount2, \"Insufficient Allowance\");\r\n\r\n                if(msg.sender != admin){\r\n                    require(memberDetails[msg.sender].currencyAmt[index1] >= amount1, \"Insufficient Currency\");\r\n                    memberDetails[msg.sender].currencyAmt[index1] -= amount1;\r\n                }\r\n                if(found2 == 0){\r\n                        memberDetails[requestedAddress].currencies.push(requests[requestedAddress].currency);\r\n                        memberDetails[requestedAddress].currencyAmt.push(amount1);\r\n                    }\r\n                    else{\r\n                        memberDetails[requestedAddress].currencyAmt[index2] += amount1;\r\n                }\r\n                ERC20(token).transferFrom(requestedAddress,address(this), amount2);\r\n                ERC20(token).transfer(msg.sender, amount2);\r\n                sucess = 1;\r\n                requests[requestedAddress].valid = 0;\r\n                delete memRequested[index];\r\n            }\r\n        }else{\r\n            revert();\r\n        }\r\n    }\r\n\r\n    function getMemRequested() public onlyMembers view returns(address[] memory){\r\n        return memRequested;\r\n    }\r\n\r\n    function getDetailByMem(address member) public onlyMembers view returns(string memory, uint256, uint256, address , bool, bool, uint){\r\n        return (requests[member].currency,requests[member].fromAmt,requests[member].toAmt,requests[member].fromMember,requests[member].toToken,requests[member].fromToken,requests[member].valid);\r\n    }\r\n\r\n    function getDetail () public onlyMembers view returns(string[] memory, uint256[] memory, uint256[] memory, address[] memory, bool[] memory, bool[] memory, uint[] memory, string memory){\r\n        string[] memory ret1 = new string[](memRequested.length);\r\n        uint256[] memory ret2 = new uint256[](memRequested.length);\r\n        uint256[] memory ret3 = new uint256[](memRequested.length);\r\n        address[] memory ret4 = new address[](memRequested.length);\r\n        bool[] memory ret5 = new bool[](memRequested.length);\r\n        bool[] memory ret6 = new bool[](memRequested.length);\r\n        uint[] memory ret7 = new uint[](memRequested.length);\r\n        for(uint i=0; i<memRequested.length; i++){\r\n          ret1[i] = requests[memRequested[i]].currency;\r\n          ret2[i] = requests[memRequested[i]].fromAmt;\r\n          ret3[i] = requests[memRequested[i]].toAmt;\r\n          ret4[i] = requests[memRequested[i]].fromMember;\r\n          ret5[i] = requests[memRequested[i]].toToken;\r\n          ret6[i] = requests[memRequested[i]].fromToken;\r\n          ret7[i] = requests[memRequested[i]].valid;\r\n        }\r\n        return(ret1, ret2, ret3, ret4, ret5, ret6, ret7, ret1[ret1.length-1]);\r\n    }\r\n\r\n\r\n    function cancelRequest () public onlyMembers{\r\n        uint index=0;\r\n        for(uint i=0; i<memRequested.length; i++){\r\n            if(memRequested[i] == msg.sender){\r\n                index = i;\r\n            }\r\n        }\r\n        requests[msg.sender].valid = 0;\r\n        delete memRequested[index];\r\n    }\r\n\r\n    function getStatus() public view returns(uint, uint){\r\n        return (memberDetails[msg.sender].membership, memberDetails[msg.sender].currencies.length);\r\n    }\r\n\r\n    function getCurrency(uint index) public view onlyMembers returns(string memory, uint){\r\n        return (memberDetails[msg.sender].currencies[index], memberDetails[msg.sender].currencyAmt[index]);\r\n    }\r\n\r\n    function clean() public onlyAdmin{\r\n        delete memRequested;\r\n    }\r\n\r\n}\r\n",
  "sourcePath": "C:\\Users\\NoCode\\Desktop\\DAPP_526\\cur-contract\\contracts\\exchangecur.sol",
  "compiler": {
    "name": "solc",
    "version": "0.8.0+commit.c7dfd78e.Emscripten.clang"
  },
  "schemaVersion": "3.4.3",
  "updatedAt": "2021-12-05T19:44:47.702Z",
  "networkType": "ethereum",
  "devdoc": {
    "kind": "dev",
    "methods": {},
    "version": 1
  },
  "userdoc": {
    "kind": "user",
    "methods": {},
    "version": 1
  }
}